:1000000000000320D101000009150000C114000008
:10001000C1140000C1140000C1140000C11400008C
:10002000C1140000C1140000C11400000915000033
:1000300009150000C1140000311D0000351E00002C
:100040000915000009150000091500000915000038
:100050000915000009150000091500000915000028
:100060000915000009150000091500000915000018
:100070000915000009150000091500000915000008
:1000800009150000091500000915000009150000F8
:1000900009150000091500000915000009150000E8
:1000A00009150000091500000915000009150000D8
:1000B000091500000915000009150000A915000028
:1000C00009150000D51600000915000001180000F0
:1000D00009150000F91800000915000009150000B5
:1000E0000915000009150000091500000915000098
:1000F0000915000009150000091500000915000088
:100100000915000009150000091500000915000077
:1001100009150000F5080000091500000915000088
:100120000915000009150000091500000915000057
:100130000915000009150000091500000915000047
:100140000915000009150000F1190000091500004B
:100150000915000009150000091500000915000027
:100160000915000009150000091500000915000017
:100170000915000009150000091500000915000007
:1001800009150000091500000915000009150000F7
:100190000915000009150000E91A00000915000002
:1001A00009150000091500000915000009150000D7
:1001B00009150000091500000915000009150000C7
:1001C00009150000091500000915000009150000B7
:1001D0005C4B4CF2205210B51A804DF628121A8052
:1001E00000BF00BF01F094F9574B4FF030621A6026
:1001F000564A9A60564ADA60564B4FF470021A60BB
:10020000554B564A1A60564A136813F4807304D14A
:1002100054490B604FF4A8531360534B1A781107DD
:1002200003D51A7842F008021A70504B5049AA229E
:100230001A70504A504B8B4204D252F8040F43F8C4
:10024000040BF8E74D4B4E4900228B4202D243F893
:10025000042BFAE74B494C4A002352F8230041F89B
:1002600023000133742BF8D1484B494A802103F80D
:10027000011B9342FBD1474B424A1A60464B8A22EC
:100280001A70A3F5805324225A70A0221A709A790A
:100290009207FCD59A79D406FCD4404A937903F0AE
:1002A0000C03082BFAD13E4B60221A7002331A78E5
:1002B000802AFCD1394B01221A715D225A719A7938
:1002C0009006FCD59979354A4906FBD5354B364918
:1002D00019600021596020231370937903F00C03F7
:1002E0000C2BFAD1314B324A1A60324B324A1A6027
:1002F00000225A60072243F8042C304AC3F80C2D20
:1003000062B600F0BDF9174B1B68DA0705D52C481B
:1003100000F046F92B4B2C4A1A602C4B1B785B06DD
:1003200009D5284C284B22689A4204D1244800F071
:1003300037F90023236001F0B9FD01F0EFF800F078
:10034000E5FFFEE70E20054030800440823F0400B8
:100350000100002B88ED00E0002008E0030000858C
:1003600010D0034014D0034002D0074000E0074003
:10037000080CFF1F582200003007FF1F080CFF1F4A
:100380005010FF1F0002FF1F0000000000E400E00B
:1003900064E400E008ED00E0005006400040064044
:1003A00001E007404480044000000602048004404D
:1003B000C010070014E000E01FBF02000000202072
:1003C0000C0345041CE00340A5C3945A00F0074009
:1003D000FFFFFFFFFFFFFFFFFFFFFFFFFFFFFFFF2D
:1003E000FFFFFFFFFFFFFFFFFFFFFFFFFFFFFFFF1D
:1003F000FFFFFFFFFFFFFFFFFFFFFFFFFFFFFFFF0D
:10040000FFFFFFFFFFFFFFFFFFFFFFFFDEF9FFFF23
:1004100010B5054C237833B9044B13B10448AFF33E
:1004200000800123237010BD080CFF1F0000000096
:100430005C220000084B10B51BB108490848AFF317
:1004400000800848036803B910BD074B002BFBD0A0
:10045000BDE81040184700BF000000000C0CFF1F53
:100460005C220000080CFF1F0000000008B500F02F
:1004700031F800F029F800F023F800F023F800F03C
:1004800027F800F029F8BDE8084000F01FB800BFC9
:1004900008B501210D2000F09BF801210D2000F08E
:1004A00091F84FF47A7000F099F80D20002100F0D7
:1004B00089F84FF47A70BDE8084000F08FB800BFAB
:1004C000704700BF704700BF704700BF704700BF54
:1004D000704700BF704700BF704700BF10B4114B9A
:1004E00053F8302092F8804234B1012379B182F878
:1004F00080305DF8044B704703EBC0035B681A68FB
:1005000051B922F002021A605DF8044B704782F87C
:1005100000315DF8044B704742F003021A605DF849
:10052000044B7047E81F00001C4A02EBC00301297E
:100530005B6811D004291BD052F83000002280F8EB
:10054000802229B1022920D0032922D01A607047C5
:100550004FF480721A60704752F830004FF4A27264
:1005600080F880121A601A6822F020021A60704720
:1005700052F830104FF4A272012081F880021A6004
:100580001A6842F020021A60704740F203121A60A3
:1005900070474FF481721A60704700BFE81F000077
:1005A00030B4054B054D064C002210211A602A601C
:1005B0002060196030BC704714D0034004D0034061
:1005C00000D003403F2801D8FFF788BF704700BF25
:1005D0003F2801D8FFF7A8BF704700BF2DE9F843B7
:1005E000054672B6224F234B234A1B683C681268AB
:1005F00062B6520102D5322B88BF0134B5B3C3F5C0
:100600002F3303F21F331D4EDFF86890DFF8688048
:100610009B084FF47A72A6FB031302FB04F404EB6D
:10062000930472B6D9F800103A68D8F800E062B6C0
:10063000C1F52F3303F21F339B08A6FB03031EF003
:10064000806FC4EB93034FF47A7002D0322988BFD5
:10065000013200FB0233B3F57A7F04D3013D05D0AC
:1006600004F57A74DDE700F059FEDAE7BDE8F883B7
:10067000240CFF1F18E000E004ED00E0176CC11629
:10068000F8B54E4B4E48DFF85CC14E4C4E49DFF892
:1006900058E14E4E4E4D4F4F4FF000621A604FF0F2
:1006A00080521A604FF000521A604FF080421A6078
:1006B0004FF000421A600022026028234EF6FF70BD
:1006C000CCF80000CEF8003023600EF5012E0B6050
:1006D00033602B6006F500263B6005F50025A3621C
:1006E00007F500278B6204F5012401F5012106F6C8
:1006F000E87605F6E87507F57F6710310EF1100E04
:10070000203433602B60CEF800303B600B602360F8
:10071000314CBB618B6109212160A7F5002704F5ED
:100720008054203F08343A602060BB60E36047F8A3
:10073000041C04F5FD2407F5FE27043704F2FC74BD
:1007400022603860A360FB6044F8041C083404F69F
:10075000FC74C7F8FC2F2060A4F5E124A4F2DC743B
:1007600033602B60C7F8F81F21681C4841F4007102
:10077000216001681A4C0EF57F4E0EF1E80E07F568
:10078000883706F5803605F5803541F00071016047
:10079000CEF8002047F6FF710822396033602B60E5
:1007A000226000F01DFE3220FFF718FF00F0CEFCA3
:1007B0004FF4AF70BDE8F840FFF710BF04E100E070
:1007C00004800340148003401C80034024800340C5
:1007D0002C800340348003400080034004800440A8
:1007E00000900C40088003400C800340F0B472B6C7
:1007F0001A491B4E012311F8014B194F9A00240787
:1008000042F0010505D556F8324064B156F835205E
:10081000BAB10133052BEED162B6124B00221A7029
:10082000F0BC00F01BBD0F4C0F4D217847F8325043
:1008300007EB431308304A1E5860227062B6F0BCC2
:1008400070470849094B0A7847F8353007EBC5036C
:100850000830013A58600A7062B6F0E7E8210000FB
:100860000000FF1FFD0CFF1F88004000C800400073
:10087000431E032B1DD81B4A400140F0100030B42A
:10088000104472B6184CE25C032A1BD8DFE802F071
:100890000212151703220D88E25410F0080F14BF3E
:1008A000C823882343EA054308310360416062B6E8
:1008B00030BC704708300222EDE70522EBE7083034
:1008C0000422E8E7094A52F8230038B1084A52F8EE
:1008D0002300416042F8231062B6E9E742F8231092
:1008E000034AF7E70000FF1F0C0DFF1FD40CFF1F8A
:1008F000E40CFF1F2DE9F04FDFF804A3DFF804B389
:1009000087B044E0A94F4FEA930807EBC809013EBE
:10091000D9F8042003F00803F6B2A2F1080003F0AE
:10092000FF04002B40F0FE8057F838301B0C99B2C2
:1009300022F8081C002B00F0EC809D4B22F8064C9E
:1009400042F8044C53F82620002A00F02B82994DDF
:1009500055F826305860984C45F8260034F8163083
:10096000194424F8161000F059FC002800F01382F6
:10097000924A934B19F0080F00F1080018BF134674
:10098000C9F8040047F8383008238AF800309AF88C
:100990000040E4B260071AD58A4B1B78A3B18A499C
:1009A0000A7802F0FF0322B1013BDBB20B7003B9FE
:1009B00000BE86490A7802F0FF032AB1013BDBB290
:1009C0000B70002B00F0BD8104238AF8003004F086
:1009D000080303F0FF02002B00F0C8809BF80030F2
:1009E000DBB21E098ED19C08704F57F8342007EBFC
:1009F000C401C2F38302013A49680C2A00F28580DF
:100A0000DFE802F07979838383838383428383835E
:100A1000070008686E4B6F4D0193684B4A686E4E35
:100A200047F8343081B240F28164694B6A602860D3
:100A300000220120A1421A603A61BA61307000F2CE
:100A4000E380B1F5D06F80F02782B1F5817F00F0AF
:100A5000E08100F2C381802900F03682822940F0D3
:100A6000DE81A9885D4B01F07F01042900F2D88165
:100A70005B4C89000B44227062701A78930740F136
:100A800022832070022023E2514B01931A683AB36B
:100A9000544B514E5449188834780D784028864676
:100AA00045F0020828BF4FF0400E002C84F00104EE
:100AB0003470CEEB00000CBF8824C82407EBC806B6
:100AC00080B285F0010544EA0E447260188047F850
:100AD000384072440D70002800F0B780019B1A6006
:100AE0003C4B1A88B2F5A06F0FD100219A7859704B
:100AF0003E4B1A7009E0374A108842F221029042B8
:100B000000F0A8802D4A47F83420394A0123137099
:100B10003AE72A4A2A4B19F0080F18BF134647F83C
:100B2000383031E700F09AFB324A334952F8263028
:100B3000002B00F03B8158688C5D42F8260003F1E1
:100B40000802C9F80420032C05D8DFE804F02C02C1
:100B5000292602228A551A8819F0080F0CBF88230B
:100B6000C82343EA024347F838300DE7E00700F1B5
:100B7000EB80210600F12881A20706D51F4A2049F3
:100B800013780220DBB213700870E30602D51C4B09
:100B900010221A7007B0BDE8F08F04228A55DAE7F8
:100BA00005228A55D7E703228A55D4E70000FF1FA4
:100BB000800CFF1F2C0CFF1F3C10FF1FC8004000C3
:100BC00088004000080DFF1F910CFF1F100DFF1F34
:100BD000280CFF1FF40CFF1F900CFF1FC0200740C4
:100BE000000DFF1F3C0CFF1FFC0CFF1F982007404F
:100BF00094200740D40CFF1F0C0DFF1F88200740D6
:100C0000802007409020074042F22104A14200F0DA
:100C1000948043D8B1F5086F00F0A881B1F5106F4A
:100C200040F0FD80B84AB94CA978117004F18005F4
:100C300003E00834AC4200F09E81236A1906F8D51F
:100C4000606A083800F00AFBF3E7BEF1400F18BFF6
:100C5000002243E7AE4ACD1D11F8013B02F8013FE7
:100C6000A942F9D1AB4A1268862A00F01181AA493B
:100C7000AA4E0A78307882F00105002842F002027C
:100C80000D700CBF8821C82147F8321007EBC20253
:100C900080F0010000213070516033E742F22124DE
:100CA000A14240F0FE81DFF8BCC29D4B9D49AC786B
:100CB000DCF800501D6081460C70002002908046D8
:100CC0008446044694490D7845F0020E07EBCE03A6
:100CD000B9F1000F5C600CBF8824C82444EA080303
:100CE00085F0010447F83E3032700C70DFF81CE2EA
:100CF0008A4BDFF82482002840F09880BCF1400F36
:100D00001BD144F0020407EBC403029FDFF8FCE1AF
:100D10005F60002A40F09F80020442F0880207448E
:100D20004EF8342086F800900D703B46402804D1E0
:100D300000207D4A019910800B607C4A01231370CA
:100D4000E3E600F0BFFA3FE6704B784872491A615B
:100D50004FF0020E80F800E0754F0A707549196077
:100D60009960754E754D764C9A610D213970FF2151
:100D70003170DFF8F4E129702270724D724A8EF8FA
:100D800000109F27012406F8047C5D600470DA607F
:100D900007B0BDE8F08F6D4A47F83800137801338B
:100DA0001370F1E543F82600694DD4E58B5D032B04
:100DB00067D801A252F823F08909000089090000D0
:100DC0000D0E0000070E000059495C4B80220D20DB
:100DD00008701A70A2077FF5D8AECFE640F2023253
:100DE000914240F05681A98801F07F01042916D86C
:100DF0006A88A2B94E4C89000C448146217841F0A2
:100E00000201217059E701238B55BDE500238B5565
:100E1000BAE5A98801F07F01042940F24781444BDB
:100E20000F221A70414A012313706EE640287FF6A4
:100E300068AF44F002040EEBC401029E4E60AAB1FA
:100E4000444A83F800903346403888F800504033D5
:100E50004EF834206DE70204029B86F8009042F0C1
:100E6000C8020D7003444EF834205FE783F8009009
:100E7000029B304A88F80050403840334EF8342006
:100E800057E719F0080F0CBF022303238B557BE5AE
:100E9000314A0F211170EAE6304A5468002CBED066
:100EA0006888B5F804E003E00C325468002CB6D032
:100EB00013888342F8D153887345F5D1000A03287B
:100EC0000CBF2078108903E0254C0220227062704C
:100ED000EA88824280F00C810F490D78402A45F063
:100EE000020E944607EBCE0028BF4FF0400C04EBF7
:100EF0000C0344600293CCEB02004FEA0C484FF025
:100F000001090022C824E9E6080DFF1F0000FF1FA9
:100F10004310FF1F4410FF1FFC0CFF1F900CFF1F0E
:100F20004C10FF1F1C0DFF1F3C0CFF1F942007409F
:100F3000C0200740880040008820074080200740EC
:100F400098200740400CFF1F940CFF1FFD0CFF1F53
:100F50002C0CFF1FC8004000910CFF1FEC2100006B
:100F6000000DFF1F240CFF1F8C200740684A694CAE
:100F700012782270ACE76849684B694A0291694966
:100F8000694C6A4D039405964FF0000988461C464B
:100F900016460495206828B1456800F05FF9284698
:100FA000002DF9D100232360049B30681A460023EA
:100FB00042F8293028B1456800F050F92846002D44
:100FC000F9D100223260029A98F8003011460022CE
:100FD00041F8042B039A0291023B4FF0000122F8E2
:100FE0001910032B07D8DFE803F0340234024FF066
:100FF000010388F8003009F10109B9F1040F04F187
:10100000040406F1040608F10108C3D1484B059E0B
:10101000DFF83091DFF8308100211970012518F8D0
:10102000013B09F8043B1A0718D4AC0044F0020253
:1010300044F00304002347F8323047F834303D4B86
:10104000994505F10105EAD196F8009089F0010271
:1010500033E64FF0000388F80030CCE700F0DEF80C
:10106000AC0007EB451300F10802002837D05A60A6
:10107000314B47F8343000F0D1F844F0010307EB6E
:10108000C30200F1080100B351602C4A47F8332035
:10109000CCE7B1F5A06F7FF4C2AE00224FF001099A
:1010A0000BE642F221329142F7D0B8E66A88002A74
:1010B0007FF4B5AE224C89000C448146217821F0A2
:1010C00002012170F9E5022002E7194B44F0010208
:1010D0001B7847F83200164A01331370A6E7144B09
:1010E000134A1B78AC00013347F834001370C2E791
:1010F0004028844628BF4FF0400C04EB0C03CCEB97
:1011000000004FEA0C48029300224FF00109D9E594
:10111000080DFF1F000DFF1FE40CFF1F800CFF1FB9
:10112000D40CFF1F0C0DFF1F3C10FF1F2C0CFF1FCA
:10113000FD0CFF1FD420074088004000C80040007D
:10114000C0200740C4200740E82100002DE9F041FD
:10115000274C00F03BFD002204F1880023461A6072
:101160005A60083383424FF00001F8D12148224AE7
:101170000368DFF89CE0214E214D224FDFF894C038
:10118000DFF8948043F480230360136843F04073D6
:10119000136003238EF80030A023337002F5C922B8
:1011A000C4F3072300F528302B708030C4F30743C5
:1011B00010323B70240EFF230470134D8CF8003066
:1011C000124888F800301370012306F8AC3C4FF445
:1011D00000140EF8441C7026102107F82C3C2E70C9
:1011E000046082F8F810AEF1440EBDE8F08100BF53
:1011F0000000FF1F3480044000D800404021074019
:101200009C200740B020074035E400E004E100E006
:1012100044210740802007408820074072B60D48CF
:101220000268B2FA82F30B2B10DC4FF00041D94078
:1012300022EA0102026062B6074803EBC303DB0047
:10124000C2180021C15010465160704762B600209C
:10125000704700BF3007FF1FD003FF1F0D4B0E4A22
:10126000C31AA2FB03231B090B2B0CD80B4A1278C1
:1012700052B972B60A484FF00041026821FA03F3EE
:101280001A43026062B67047064A1278002AF0D00C
:10129000FFF7ACBAD003FF1F398EE338FD0CFF1FF8
:1012A0003007FF1F080DFF1F044B054A1B6890887D
:1012B0001BB11A885B88D31A18447047180DFF1F9A
:1012C0003C10FF1F38B50E4B1B7873B90D4C2168CD
:1012D00061B103F0FF054B880B800420FFF7C8FACB
:1012E000256038BD084B01221A7038BDFFF796FF04
:1012F0000028F7D00146BDE838400420FFF7B8BA0F
:10130000110DFF1F140DFF1F100DFF1F08B5FFF774
:10131000ADF8FFF7BDF800F001F8FAE738B52C4C4E
:10132000237803B138BD01232370FFF7BDFF0028E8
:1013300042D100F029F900283BD100F0BBF9002888
:1013400034D100F04DFA70BB00F0C6FA40BB00F09B
:101350003FFB10BB00F0B8FBE0B900232370EFF3B4
:101360000583002BDED1EFF3108172B6194B18689C
:1013700028B3194C227812BB45691D6001232370E4
:101380000DB3AA6101B962B6002545778368984715
:101390002570C7E700F060FDDFE700F05BFDD9E7EF
:1013A00000F056FDD3E700F051FDCDE700F04CFD15
:1013B000C7E700F047FDC0E700F050FDB9E700299E
:1013C000B0D162B638BD054B1D600029DCD1DAE72B
:1013D0001D0DFF1F3010FF1F3410FF1F2C10FF1FAB
:1013E00030B42948294A2A4B2A4D6024E12104704F
:1013F00011701B78284C082B30D00A2B274828491D
:1014000037D00C2B0CBF35225D2212232A602360BB
:1014100002600B60234B24491B78244ABBB1012393
:101420000B601360224B23491B78234A012B26D9DA
:10143000042B0FD9082B1ED9102B94BF862387238A
:101440000B6013601D4B01221A7030BC70470B609B
:101450001360E7E784230B601360F3E700F58E2049
:101460000F490830212213232A60236002600B6099
:10147000D0E73922F7E785230B601360E2E780238A
:101480000B601360DEE700BF0040074001400740EB
:101490003407FF1F08B003400CB0034008B00B40F6
:1014A0000CB00B401F0DFF1F20B0034020B00B40BD
:1014B0003507FF1F24B0034024B00B401E0DFF1F53
:1014C00008B5104C08E0236859050DD423681A05A7
:1014D0000FD42368DB0411D423685803F3D5FFF736
:1014E00009FA23685905F1D500F05EF823681A055A
:1014F000EFD500F0EFF82368DB04EDD500F080F9BC
:10150000EAE700BF3480044008B5FFF7D9FF00BF09
:10151000014B10221A80704700200540704700BF21
:10152000084A1378802B01D0002070470649074BEA
:1015300007480860002119701378802BFCD0012027
:10154000704700BF03E007404480044001E00740CB
:1015500000002822094A1378012B01D0002070478F
:1015600003F1804303F5FC23602119701378802B6D
:10157000FCD1034B034A1A600120704703E0074087
:101580004480044000000602054A064B10781B7890
:10159000C0B2DBB2984238BF4030C01A704700BFBB
:1015A000240DFF1F250DFF1FF0B4384B1A7912F0E0
:1015B000300F2CD072B6997D01F0FF0200293DD08A
:1015C00062B6334F334938780D78334E1C46C0B27B
:1015D000EDB2431C402BE17928BF0023AB4202F15E
:1015E000FF32C9B21CBFF154184612F0FF02F0D10D
:1015F0002A4B1B68C2B23A704BB1A84236BFC5F144
:101600004005401B40192728C4BF01221A701F49FA
:10161000CA78D2B2150616D452060DD51B4B1B79CB
:101620005B0609D51E4B1F491B6800220A7003B1D7
:101630001A70164B3C22DA70F0BC70474022D97900
:101640005A7462B6E3E70B791C06E5D5164B174EC4
:101650001C783378E4B2DBB29C420ED0144D01E02A
:10166000A3420AD00133402B28BF00230879E85C4D
:10167000C0B2C871087D0728F2D9DBB203493370C4
:101680000B79180644BF7C23CB70C5E700A0064049
:10169000240DFF1F250DFF1F680DFF1F200DFF1FCD
:1016A000AC0DFF1FA80DFF1FB00DFF1FA90DFF1FE1
:1016B000280DFF1F054A064B10781B78C0B2DBB21D
:1016C000984238BF4030C01A704700BF240EFF1F39
:1016D000B90DFF1FF0B4384B1A7912F0300F2CD02F
:1016E00072B6997D01F0FF0200293DD062B6334FFA
:1016F000334938780D78334E1C46C0B2EDB2431CE6
:10170000402BE17928BF0023AB4202F1FF32C9B27E
:101710001CBFF154184612F0FF02F0D12A4B1B688F
:10172000C2B23A704BB1A84236BFC5F14005401B6A
:1017300040192728C4BF01221A701F49CA78D2B2A3
:10174000150616D452060DD51B4B1B795B0609D521
:101750001E4B1F491B6800220A7003B11A70164BFA
:101760003C22DA70F0BC70474022D9795A7462B6D4
:10177000E3E70B791C06E5D5164B174E1C7833783A
:10178000E4B2DBB29C420ED0144D01E0A3420AD079
:101790000133282B28BF00230879E85CC0B2C87148
:1017A000087D0728F2D9DBB2034933700B7918069C
:1017B00044BF7C23CB70C5E700B00640240EFF1F5A
:1017C000B90DFF1FE40DFF1FB40DFF1F280EFF1FF3
:1017D000B80DFF1F2C0EFF1F250EFF1FBC0DFF1F96
:1017E000054A064B10781B78C0B2DBB2984238BF6E
:1017F0004030C01A704700BF340EFF1F350EFF1F68
:1018000030B42B4B1A7994061FD52A48DA7903781D
:10181000294901333F2B0978C8BF00238B42D2B23C
:1018200003D0264CD9B2E2540170254A116861B147
:10183000244A1278D2B2934236BFC2F140029B1AB8
:101840009B18272BC4BF01230B70194AD378DBB236
:10185000180611D45A060DD5154B1B795B0609D510
:10186000194B1A491B6800220A7003B11A70104BF9
:101870002C22DA7030BC704711790906EAD5144978
:1018800010480C780178C9B28C420DD04A1C272A26
:1018900084BF00210A460F4D054C98BFD1B2AA5C07
:1018A000D2B2E2710170D5E76C21D170D2E700BFEE
:1018B00000C00640340EFF1F350EFF1F600EFF1FD5
:1018C000300EFF1FA10EFF1FA40EFF1FA00EFF1F53
:1018D000A80EFF1F380EFF1F054A064B10781B7815
:1018E000C0B2DBB2984238BF4030C01A704700BF68
:1018F000B00EFF1FB10EFF1F30B42B4B1A799406A8
:101900001FD52A48DA790378294901333F2B097812
:10191000C8BF00238B42D2B203D0264CD9B2E254C6
:101920000170254A116861B1244A1278D2B29342FB
:1019300036BFC2F140029B1A9B18272BC4BF01235C
:101940000B70194AD378DBB2180611D45A060DD59C
:10195000154B1B795B0609D5194B1A491B680022E8
:101960000A7003B11A70104B2C22DA7030BC704729
:1019700011790906EAD5144910480C780178C9B2E2
:101980008C420DD04A1C272A84BF00210A460F4DE5
:10199000054C98BFD1B2AA5CD2B2E2710170D5E712
:1019A0006C21D170D2E700BF00D00640B00EFF1FFF
:1019B000B10EFF1FDC0EFF1FAC0EFF1F1D0FFF1F20
:1019C000200FFF1F1C0FFF1F240FFF1FB40EFF1F50
:1019D000054A064B10781B78C0B2DBB2984238BF7C
:1019E0004030C01A704700BF2C0FFF1F2D0FFF1F84
:1019F00030B42B4B1A7994061FD52A48DA7903782C
:101A0000294901333F2B0978C8BF00238B42D2B24A
:101A100003D0264CD9B2E2540170254A116861B155
:101A2000244A1278D2B2934236BFC2F140029B1AC6
:101A30009B18272BC4BF01230B70194AD378DBB244
:101A4000180611D45A060DD5154B1B795B0609D51E
:101A5000194B1A491B6800220A7003B11A70104B07
:101A60002C22DA7030BC704711790906EAD5144986
:101A700010480C780178C9B28C420DD04A1C272A34
:101A800084BF00210A460F4D054C98BFD1B2AA5C15
:101A9000D2B2E2710170D5E76C21D170D2E700BFFC
:101AA00000A00E402C0FFF1F2D0FFF1F580FFF1F10
:101AB000280FFF1F990FFF1F9C0FFF1F980FFF1F7D
:101AC000A00FFF1F300FFF1F054A064B10781B7831
:101AD000C0B2DBB2984238BF4030C01A704700BF76
:101AE000A80FFF1FA90FFF1F30B42C4B5A68940298
:101AF0001FD52B48DA6803782A4901333F2B097830
:101B0000C8BF00238B4204D0274CD2B2D9B2E254D2
:101B10000170264A116861B1254A1278D2B2934207
:101B200036BFC2F140029B1A9B18272BC4BF01236A
:101B30000B701A4A9368180202D55268110211D428
:101B40005A020DD5154B5B685B0209D5194B1A4932
:101B50001B6800220A7003B11A70184B00221A6029
:101B600030BC7047164A124910780A78D2B29042B7
:101B70000DD00132272A84BF00200246114D074CA8
:101B800098BFD0B2AA5CD2B2E2600870D8E70E4823
:101B90000A4A0024012104601160D1E700400C4092
:101BA000A80FFF1FA90FFF1FD40FFF1FA40FFF1FB8
:101BB0001510FF1F1810FF1F1410FF1F5801884336
:101BC0001C10FF1FAC0FFF1F5C01884310B584B0D1
:101BD00072B6FFF7A5FC184A184B1949116070221C
:101BE00080211A701A46197013781B06FCD5154B04
:101BF0001C68FFF7AFFC62B6134B9C429CBF04EB22
:101C0000840464002046114C01A90A2200F028F93E
:101C100001A92046002311F8012B01333AB10A2B08
:101C200020F8022FF7D11623237004B010BD5B00FB
:101C3000DBB2237004B010BD04000240000002407B
:101C4000000007410C0002407F969800C407FF1F68
:101C500010B4EFF3108272B6437F33B9017F0129CC
:101C600008D0032910D00123437702B962B65DF88A
:101C7000044B7047114C2168A1B1114943610B68B5
:101C8000836108605861EEE70E4C216881B10E490E
:101C900043610B688361086058610C4B4FF08051C1
:101CA0001960E0E7064B4161816120601860DAE766
:101CB000054B4161816120601860EEE73010FF1F25
:101CC0002C10FF1F2010FF1F2410FF1F04ED00E049
:101CD00010B4047F4160022CC26003D05DF8044B55
:101CE000FFF7B6BF83685DF8044B184770B5EFF394
:101CF000108272B60C4C206880B10C4E00254369EE
:101D0000236073B19D6102B962B6457783689847D5
:101D1000EFF3108272B620680028F0D102B962B6E3
:101D200070BD3360EFE700BF2010FF1F2410FF1FBE
:101D3000FFF7DCBF184A30B41468002C27D00368C2
:101D400021688B420ED2CB1A00218460C1602360CF
:101D5000E06010600223037530BC704711688B424D
:101D6000144608D3A2685B1A0360002AF6D1826089
:101D7000C460A060EEE7D268C2608460E060C568BD
:101D8000CB1A0222A8602360027530BC70478460C1
:101D9000C4601060DEE700BF2810FF1FF8B5224EB8
:101DA00034682CB32368002B3AD1204F1D4604E041
:101DB0003468ECB12368002B32D1A36803B1DD6035
:101DC00020693360036825751B68BB4221D1037FFE
:101DD0004560022BC46020D0FFF73AFF6368002BF8
:101DE000E6D023602046FFF7A5FF3468002CE1D140
:101DF000EFF3108372B60E4A00211068116003B928
:101E000062B628B18468FFF795FF20460028F9D113
:101E1000F8BD224600219847E0E783689847DDE750
:101E2000013B2360E4E700BF2810FF1FD11C000026
:101E30003810FF1F024A136801331360FFF7AEBF6B
:101E4000240CFF1F704700BF704700BF704700BFE2
:101E5000704700BF704700BF704700BF704700BFAA
:101E6000F0B44D1E2E46002400E00134B0FBF2F326
:101E700002FB1300092800F130078ABF3730F8B29F
:101E8000C0B206F8010F1846002BEED10A195370A4
:101E90004CB1107815F8016F28700133E01A8342B5
:101EA00002F80169F5DB0846F0BC704770B50F4ECB
:101EB0000F4D761BB61018BF002405D0013455F81D
:101EC000043B9847A642F9D10A4E0B4D761B00F011
:101ED000B9F9B61018BF002406D0013455F8043BF8
:101EE0009847A642F9D170BD70BD00BF50220000D6
:101EF000502200005822000050220000024B13B173
:101F0000024800F005B87047000000001D1F0000E7
:101F1000002301461A46184600F014B838B5074D9C
:101F2000074C2C1BA41005D0013C55F8043D9847E4
:101F3000002CF9D1BDE8384000F08EB90000000057
:101F4000000000002DE9F047254C2568D5F84841F0
:101F50000646884692469946C4B360681F2817DC37
:101F6000431C76B104EB80050122C5F888A0D4F8A3
:101F7000881182401143022EC4F88811C5F80891D7
:101F80001ED00230636044F820800020BDE8F08756
:101F9000144B03B34FF4C870AFF300800446D0B1C4
:101FA000D5F84831002780E88800C5F84841384610
:101FB0000123C4F88871C4F88C71002EE1D0D1E7F8
:101FC000D4F88C110A43C4F88C21DAE705F5A6741D
:101FD000C5F84841C1E74FF0FF30BDE8F08700BFCA
:101FE00040220000000000004008FE4340A00440E2
:101FF0004408FE4344A004400018FE4300C00440CF
:102000003000FE43309004403400FE4334900440DE
:102010001C18FE431CC004401018FE4310C00440AE
:102020000818FE4308C004400C18FE430CC00440CE
:102030000C10FE430CB004401010FE4310B00440DE
:102040001810FE4318B004401C10FE431CB004409E
:102050001410FE4314B004400418FE4304C00440AE
:102060000010FE4300B004400008FE4300A00440FE
:102070000408FE4304A004400C08FE430CA00440E6
:102080000808FE4308A004401418FE4314C004408E
:102090001818FE4318C004400410FE4304B0044066
:1020A0000810FE4308B004406820FE4368D0044096
:1020B0001400FE43149004403800FE43389004405E
:1020C0003C00FE433C9004404000FE4340900440EE
:1020D0004808FE4348A004404C08FE434CA004407E
:1020E0002808FE4328A004402C08FE432CA00440EE
:1020F0006020FE4360D004406420FE4364D004406E
:102100002010FE4320B004402410FE4324B00440BD
:102110002810FE4328B004402C10FE432CB004408D
:102120004400FE43449004407000FE43709004401D
:102130007400FE43749004406800FE4368900440BD
:102140005008FE4350A004405808FE4358A00440E5
:102150005C08FE435CA004405408FE4354A00440C5
:102160002018FE4320C004402418FE4324C004402D
:102170001008FE4310A004401408FE4314A00440BD
:102180003818FE4338C004403418FE4334C00440BD
:102190003018FE4330C004403C18FE433CC00440AD
:1021A0002C18FE432CC004402820FE4328D00440B5
:1021B0002C20FE432CD004400020FE4300D00440DD
:1021C0000420FE4304D004400820FE4308D004400D
:1021D0000C20FE430CD004401020FE4310D00440DD
:1021E0001420FE4314D0044000151915000100000E
:1021F0003807FF1F12000000000200006407FF1FE5
:102200004300000000030000C007FF1F00000000A3
:10221000010309044C07FF1F00000000020309042A
:10222000A807FF1F0000000003030904C407FF1FE5
:10223000000000000000000000000000000000009E
:10224000E007FF1FF8B500BFF8BC08BC9E4670470A
:08225000FD1E00003504000032
:04225800F8B500BF16
:10225C00FFFFFFFF0A040000120101010200004011
:10226C00C01683040002010203010000180354008D
:10227C00650065006E0073007900640075006900EC
:10228C006E006F0009024300020100C03209040015
:10229C0000010202010005240010010524010101C6
:1022AC0004240206052406000107058203100040E1
:1022BC0009040100020A00000007050302400000A7
:1022CC00070584024000000016035500530042002D
:1022DC002000530065007200690061006C00000072
:1022EC00040309040C0300000000000000000000BF
:1022FC0000000000000000000000000000000000D2
:10230C0000000000CC0AFF1F340BFF1F9C0BFF1FAB
:10231C0000000000000000000000000000000000B1
:10232C0000000000000000000000000000000000A1
:10233C000000000000000000000000000000000091
:10234C000000000000000000000000000000000081
:10235C000000000000000000000000000000000071
:10236C000000000000000000000000000000000061
:10237C000000000000000000000000000000000051
:10238C000000000000000000000000000000000041
:10239C000000000000000000000000000000000031
:1023AC000000000000000000010000000000000020
:1023BC000E33CDAB34126DE6ECDE05000B000000E5
:1023CC000000000000000000000000000000000001
:1023DC0000000000000000000000000000000000F1
:1023EC0000000000000000000000000000000000E1
:1023FC0000000000000000000000000000000000D1
:00000001FF
